:100000006D28FF3FFF3FFF3FFF00030E8301A60067
:100010000408A5000A08A7008A017B08BA007A082C
:10002000B9007108B8007008B7008B1C4F28A230C7
:10003000FB00FF30FA00FB0B1E282128FA0B1E28BC
:100040001B28E930FA00FA0B23280000000000000A
:10005000FF30A00001300505F000031939280030F9
:1000600085180130F1007108031939280330A00008
:100070004E2805184528003085180130F100710818
:10008000031945280430A0004E2801300505F00072
:1000900003194E2885184E280530A0008B108C1EA1
:1000A0005C289C227008A000FF30A100FF30A20055
:1000B000FF30A300FF30A4003A08FB003908FA0023
:1000C0003808F1003708F00027088A002508840066
:1000D000260E8300FF0E7F0E0900FF3003138312EC
:1000E000A000FF30A100FF30A200FF30A300FF30CE
:1000F000A40003179E019F01403003138316810063
:1001000007308500073095008601870183120714A8
:100110008714071583160613061687138312AA0180
:10012000AB01AC010130AD00412281308316990052
:1001300018158C220B178B170B1683168C1683122F
:100140002008A900FF30A000A3290230AA00AB01BB
:10015000AC01AD01AE01BE30AF004630B000B10120
:10016000B201BD21BB290230AA00AB01AC01AD0137
:10017000AE01EC30AF000C30B000B101B201BD21D6
:100180000230AA00BE30AB004630AC00AD01AE017B
:10019000F030AF004230B000B101B201BD21BB2947
:1001A0000230AA00AB01AC01AD01AE01EC30AF00F2
:1001B0000C30B000B101B201BD210230AA00AE3056
:1001C000AB008930AC00AD01AE015330AF00503010
:1001D000B000B101B201BD21BB290130AA0001303C
:1001E000AB00DA30AC00AD01AE01C930AF00503029
:1001F000B000B101B201BD21BB290130AA00CA3053
:10020000AB002A30AC000130AD000030AE00C13090
:10021000AF007D30B000B101B201BD21BB29023079
:10022000AA008B30AB00A830AC000130AD0000302C
:10023000AE00D230AF000F30B000B101B201BD212D
:100240000330FC00FF30FB00FF30FA00FC0B2929D3
:100250003029FB0B2C292F29FA0B2C292929262997
:100260002B30FB00FF30FA00FB0B37293A29FA0B41
:10027000372934297A30FA00FA0B3C2900000000B3
:100280000230AA008B30AB00A830AC000130AD00CA
:100290000030AE00D230AF000F30B000B101B2017B
:1002A000BD210330FC00FF30FB00FF30FA00FC0BE7
:1002B0005A296129FB0B5D296029FA0B5D295A290E
:1002C00057292B30FB00FF30FA00FB0B68296B2904
:1002D000FA0B682965297A30FA00FA0B6D290000BB
:1002E00000000230AA008B30AB00A830AC00013017
:1002F000AD000030AE00D230AF000F30B000B10121
:10030000B201BD210330FC00FF30FB00FF30FA00DA
:10031000FC0B8B299229FB0B8E299129FA0B8E2934
:100320008B2988292B30FB00FF30FA00FB0B992921
:100330009C29FA0B992996297A30FA00FA0B9E2902
:1003400000000000BB292908003A0319A528290844
:10035000013A0319B3282908023A0319D0282908B9
:10036000033A0319ED282908043A0319FD2829083E
:10037000053A03190F299F28BC2903138312071478
:100380000710AB30B50068220714A630FA00FA0B4C
:10039000C7290000071007150330B50068222D0893
:1003A000B50068222C08B50068222B08B500682229
:1003B000A101A201A301A40132082402031DEA291C
:1003C00031082302031DEA2930082202031DEA290D
:1003D0002F08210203182E2A0715B5017A2270086A
:1003E000B300B401B30DB40D3310B30DB40D33101D
:1003F000B30DB40D3310B30DB40D331007118710C6
:1004000010303404B50068223308B5006822871420
:100410001A2AA830FA00FA0B0B2A262A6C30FA00A6
:10042000FA0B102A262A1D30FA00FA0B152A0000B2
:100430000000262A2A08003A0319092A2A08013A44
:1004400003190E2A2A08023A0319132AA10A0319CA
:10045000A20A0319A30A0319A40ADC298710183079
:10046000B5006822B5016822871407140710B93057
:10047000B50068220714A630FA00FA0B3D2A0000E6
:1004800008000313831687130613061683129401BC
:100490002A0894002C082A0494002B08831694043C
:1004A00083122C0803195D2A2D08003A031D5A2ACD
:1004B0008316141703138316632A83122D08031956
:1004C000632A8316141703138316831294160800E5
:1004D0000313831235089300013083161405F100CD
:1004E0007108003A031D762A00006C2A8312130853
:1004F000B6000800031383123508930001308316F9
:100500001405F1007108003A031D882A00007E2AB4
:1005100083121308F0000800031383169816903016
:100520008312980083168616861783128C1E9B2AC8
:100530001A08AE00952A0800031383121A08A800AF
:10054000981CA42A181218162808F0000800FF3F6B
:02400E00C23CB2
:00000001FF
