:100000005628FF3FFF3FFF3FFF00030E8301AE0076
:100010000408AD000A08AF008A017108B300700837
:10002000B2000B1D43282308003A031D2D28861417
:1000300006112408993FF00001300318013FF10038
:100040007008A2007108A1000A08A000AF21850075
:1000500020088A000130A3004128061586102508D3
:10006000A43FF00001300318013FF1007008A20026
:100070007108A1000A08A000AF21850020088A00AD
:10008000A3018B160B118B1C49280130A6000B1203
:100090008B103308F1003208F0002F088A002D0879
:1000A00084002E0E8300FF0E7F0E090003138312BF
:1000B0008501860183168501213086000730831271
:1000C0009F000430831681008312A501A401A301BF
:1000D000A6010630A8000A30B000A701AA017221CB
:1000E0008B160B110B170B168B17260803191129EA
:1000F0000B12A6012130FB00FF30FA00FB0B812818
:100100008428FA0B81287E286030FA00FA0B8628B2
:100110000000000001300605F1007108003A031DDF
:100120000F29A40A24080A3A031D9D28A401A50A40
:1001300025080A3A031D9D28A5012408003A031D3D
:10014000AB282508003A031DA8280230AC00AA28D5
:100150000130AC00AC28AC018B132C08B00013218B
:100160008B170329A230FB00FF30FA00FB0BB928E4
:10017000BC28FA0BB928B628EA30FA00FA0BBE28D8
:100180000F290430FC00FF30FB00FF30FA00FC0BAD
:10019000CA28D128FB0BCD28D028FA0BCD28CA2895
:1001A000C7287130FB00FF30FA00FB0BD828DB2892
:1001B000FA0BD828D5284C30FA00FA0BDD280000BD
:1001C00000000F290530FC00FF30FB00FF30FA0073
:1001D000FC0BEB28F228FB0BEE28F128FA0BEE289B
:1001E000EB28E8287630FB00FF30FA00FB0BF928FB
:1001F000FC28FA0BF928F6285A30FA00FA0BFE28E8
:10020000000000000F292C08003A0319B2282C081E
:10021000013A0319C1282C08023A0319E2288B106D
:100220000B1675281229031383122708B006280815
:1002300084002708003A031D1F29001220290016F8
:100240002908B10088213008031926290012301826
:1002500000162908B1008821300803192F2900123F
:10026000B01800162908B100882130080319382970
:100270000012301900162908B1008821300803192E
:1002800041290012B01900162908B1008821300850
:1002900003194A290012301A00162908B1008821D2
:1002A0003008031953290012B01A00162908B100AA
:1002B0008821300803195C290012301B0016290818
:1002C000B10088213008031965290012B01B0016FF
:1002D0002908B100882100162908B10088212A08C0
:1002E00080060800031383123008A9003008AB0011
:1002F000AB0CAB13280884008417801600128413FB
:100300002708003A031D86290016872900120800D5
:1003100003138312B103B1033108003C031895297C
:10032000B1030000000000008C2900000000000064
:10033000080002348F34443450349834113401347A
:100340005A34003410340800DF34DA344434503482
:100350009834113401345A34003410340800031333
:10036000831221088A00220882000800FF3FFF3F15
:02400E00503F21
:00000001FF
